:04000000FEEF3FF0E0
:0D060000003F065B4F666D7D077F6F0000B9
:10060E00B9EC03F0A9EC03F0020EF66E060EF76ECF
:10061E000800F5CF0BF0000EB1EC03F0030EF66EF2
:10062E00060EF76E0800F5CF0BF0010EB1EC03F0DD
:10063E00040EF66E060EF76E0800F5CF0BF0020EE6
:10064E00B1EC03F0050EF66E060EF76E0800F5CF50
:10065E000BF0030EB1EC03F039EC03F033EF03F0C3
:10066E00FEEF3FF0836A000E0E6E000E0D6E0F0E43
:10067E00806E836A0D5003080B6E010E0C6E0B2AF2
:10068E004BEF03F0D8900C360B2E49EF03F00C50C5
:10069E00806E0D50070FD96EDA6ADF50836E420EF0
:1006AE00E82EFED700D00D4A0E2A0EBE68EF03F0DC
:1006BE000E5009E1040E0D5CD8A068EF03F06AEF4E
:1006CE0003F03EEF03F01200896A8A6A8B6A8C6A25
:1006DE008D6A92689368FB0E946E9568870E966E7F
:1006EE002F0E0F01386F3F0E396FF00E3A6F3B69C8
:1006FE00070E3C6F6168F00E626EF2861200D09E9D
:10070E00F292F18C000E0B6E000E0C6ED0EC03F01C
:10071E00F090F18A000E0B6E000E0C6ECBEC03F017
:10072E00F092F188000E0B6E000E0C6EC6EC03F00C
:10073E0012000A6A096A086A076A000EF86E00015A
:10074E0007EF03F00F013B6B386B956A926A806A74
:10075E00836A12000C6E0C50070FD96EDA6A0BC04A
:10076E00DFFF1200C0EC03F06BEC03F086EC03F03D
:10077E001200600ED36E040ED26E9B6A12000BC076
:10078E0001F00CC002F012000BC003F00CC004F01C
:0C079E0012000BC005F00CC006F01200A9
:047FFC00A0EF03F0FF
:020000040030CA
:0E000000FF281F3CFFBF85FF0FC00FE00F4021
:00000001FF
